:060000000A128A11EC2F28
:10001400F71B0D280E280F281A287609F8007709EF
:10002400F900F80A0319F90A7808F6007908F700C4
:1000340008000310720D730DF9007908031D2328BD
:1000440024282D280030F3000030F2000030F100A5
:100054000030F0008E287008F4007108F500720872
:10006400F6007308F7001F300310F70CF60CF50CBC
:10007400F40CFF3E031D36287408F800F217FF3015
:10008400F005FF30F105FF30F2050030F30596303E
:10009400F902F91F4E284F2867287908803A973EBD
:1000A4000318552856285728242801300310F30C28
:1000B400F20CF10CF00CFF3E031D58280130F90737
:1000C400031D6528662857287E2820307902031CE2
:1000D4006C286D28792824280130F4000310F00DD1
:1000E400F10DF20DF30DF40B70280130F9027908CB
:1000F400031D7D287E286E2878080319822883280A
:100104008E28F009F109F209F309F00A0319F10A3A
:100114000319F20A0319F30A080083120313DC011A
:10012400DD010730831603139C0006309F00850110
:1001340086018701831203130510851005118511AB
:1001440007110A128A1551220A128A110A168A11F3
:10015400D6270A128A110A168A11F8260A128A1157
:1001640001300A128A155B200A128A111230FA0031
:100174000A168A112D270A128A111A3083120313C0
:10018400DA005E30D9006D30D800D80BC728D90BFF
:10019400C728DA0BC728CE285C3083120313D60095
:1001A4005D30D7000A128A118B210A128A111F307E
:1001B400831203135C02031CE028E128E32885155D
:1001C400EA2812305C020318E828E928EA28851195
:1001D40028305D020318EF28F028F2280715F928C3
:1001E40047305D02031CF728F828F928071124304A
:1001F4005C020318FE28FF2805291E305D0203183F
:100204000429052909290510851405150C29051447
:1002140085100511F50100300A168A1114270A12F7
:100224008A114A30FA000A168A112D270A128A11F5
:10023400831203135C080A128A158A200A128A118F
:100244004430FA000A168A112D270A128A118312E1
:100254000313851D2E292F2937292130FA000A1668
:100264008A112D270A128A113E293130FA000A1602
:100274008A112D270A128A11F50101300A168A11F2
:1002840014270A128A114730FA000A168A112D27F8
:100294000A128A11831203135D080A128A158A202E
:1002A4000A128A114130FA000A168A112D270A12FD
:1002B4008A1183120313071D6029612969292930D2
:1002C400FA000A168A112D270A128A117029393068
:1002D400FA000A168A112D270A128A110130831294
:1002E4000313AC005C08D800D9015808AD005908C4
:1002F400AE005D08DA00DB015A08AF005B08B0000D
:100304000A168A1105270A128A11BF280A128A11AD
:1003140000280A128A15BA200A128A1103300A1216
:100324008A1521210A128A11003A031D9A299B2950
:10033400AC290A128A1563210A128A110A128A1533
:100344000E230A128A11710883160313CD00700854
:10035400CC00B02983160313CC01CD010A128A15EF
:10036400BA200A128A1105300A128A1521210A12AA
:100374008A11003A031DBF29C029D1290A128A15FE
:1003840063210A128A110A128A150E230A128A118B
:10039400710883160313DB007008DA00D52983166D
:1003A4000313DA01DB01C23083120313BD002030D2
:1003B400BC000A30BB003D30BA003C30A3002330FF
:1003C400A200D730A1000A30A000831603134C0802
:1003D400F0004D08F100F201F30100300A128A1511
:1003E4001A240A128A11730883120313A7007208CD
:1003F400A6007108A5007008A4000A128A11AA2494
:100404000A128A11831203132308C1002208C000B0
:100414002108BF002008BE000A128A15B0250A125E
:100424008A11831203133D0883160313D100831228
:1004340003133C0883160313D000831203133B08F1
:1004440083160313CF00831203133A08831603138E
:10045400CE00363083120313A3003B30A200E730F2
:10046400A100A230A000831603135A08F0005B0811
:10047400F100F201F30100300A128A151A240A125B
:100484008A11730883120313A7007208A600710867
:10049400A5007008A4000A128A11AA240A128A115B
:1004A40083120313230883160313D5008312031343
:1004B400220883160313D40083120313210883161E
:1004C4000313D30083120313200883160313D200EB
:1004D400C03083120313BD008030BC000030BB0069
:1004E4000030BA003D30A3002530A200E330A10063
:1004F4005430A000831603135A08F0005B08F1007F
:10050400F201F30100300A128A151A240A128A1120
:10051400730883120313A7007208A6007108A500CC
:100524007008A4000A128A11AA240A128A118312DA
:1005340003132308C1002208C0002108BF002008BB
:10054400BE000A128A15B0250A128A1183120313F7
:100554003D0883160313C700831203133C08831654
:100564000313C600831203133B0883160313C50049
:10057400831203133A0883160313C4005A08F000C5
:100584005B08F100F201F30100300A128A151A2403
:100594000A128A11730883120313A3007208A200BB
:1005A4007108A1007008A000831603135508831274
:1005B4000313A70083160313540883120313A6001E
:1005C40083160313530883120313A500831603131E
:1005D400520883120313A4000A128A11AA240A12CD
:1005E4008A11831203132308D1002208D0002108A2
:1005F400CF002008CE008316031347088312031389
:10060400D50083160313460883120313D4008316FC
:100614000313450883120313D300831603134408FA
:1006240083120313D2000A168A118B270A128A1125
:1006340083120313510883160313C3008312031395
:10064400500883160313C200831203134F08831642
:100654000313C100831203134E0883160313C0004F
:100664003C3083120313BD002330BC00D730BB00E1
:100674000A30BA003830A300A730A200C530A10068
:10068400AC30A000831603135A08F0005B08F10095
:10069400F201F30100300A128A151A240A128A118F
:1006A400730883120313A7007208A6007108A5003B
:1006B4007008A4000A128A11AA240A128A11831249
:1006C40003132308C1002208C0002108BF0020082A
:1006D400BE000A128A15B0250A128A118312031366
:1006E4003D0883160313D500831203133C088316B5
:1006F4000313D400831203133B0883160313D3009C
:10070400831203133A0883160313D2005508831285
:100714000313A30083160313540883120313A200C4
:1007240083160313530883120313A10083160313C0
:10073400520883120313A000C130BD00C830BC00AE
:100744000030BB000030BA00831603135108831233
:100754000313C10083160313500883120313C0004C
:10076400831603134F0883120313BF008316031366
:100774004E0883120313BE000A128A15B0250A120A
:100784008A11831203133D08A7003C08A6003B0806
:10079400A5003A08A4000A128A11AA240A128A118E
:1007A40083120313230883160313CB00831203134A
:1007B400220883160313CA00831203132108831625
:1007C4000313C90083120313200883160313C800FC
:1007D400430883120313BD008316031342088312D4
:1007E4000313BC0083160313410883120313BB00D5
:1007F40083160313400883120313BA0083160313EA
:100804004B0883120313C100831603134A0883128F
:100814000313C00083160313490883120313BF0094
:1008240083160313480883120313BE000A128A15A1
:10083400B0250A128A11831203133D088316031389
:10084400D900831203133C0883160313D8008312C0
:1008540003133B0883160313D700831203133A08C8
:1008640083160313D6004230F300C630F200003082
:10087400F1000030F0005908F7005808F600570856
:10088400F5005608F4000A128A1578230A128A1110
:1008940003184D2C4E2C582C423083160313D900C8
:1008A400C630D8000030D7000030D60083160313BA
:1008B4005908F3005808F2005708F1005608F000F0
:1008C4000030F7000030F6000030F5000030F4008E
:1008D4000A128A1578230A128A110318722C732CAF
:1008E4007D2C003083160313D9000030D80000306B
:1008F400D7000030D60083120313560884008316F1
:1009040003135108F3005008F2004F08F1004E0899
:10091400F0000A128A111B200A128A11700883132C
:1009240080008312031357088400831603135908A5
:10093400F3005808F2005708F1005608F0000A12B4
:100944008A111B200A128A11700883138000080080
:10095400831203132308AD008030AD052308A800DB
:100964002807B300A21FB72CB82CB92C33143308B2
:100974000319BD2CBE2CCD2C330A031DC22CC32C51
:10098400CB2C0030A3000030A2000030A1000030C6
:10099400A000A217D52C0030A3000030A200003024
:1009A400A1000030A00027088039AD062708A80060
:1009B4002807B200A61FDF2CE02CE12C32143208E9
:1009C4000319E52CE62CF52C320A031DEA2CEB2C3A
:1009D400F32C0030A7000030A6000030A500003042
:1009E400A400A617FD2C0030A7000030A60000309C
:1009F400A5000030A40032080319012D022D072D93
:100A04003308031D062D072D102D0030A3000030E0
:100A1400A2000030A1000030A000EB2F2008F0005D
:100A240026080A168A11AF270A128A11710883123E
:100A34000313B9007008B8003808A800A901AA0176
:100A4400AB012B08B1002A08B0002908AF00280820
:100A5400AE003908A800A901AA01AB012B08B70010
:100A64002A08B6002908B5002808B4002108F000B7
:100A740025080A168A11AF270A128A1171088312EF
:100A84000313B9007008B8003808A800A901AA0126
:100A9400AB012808AE07290803110318013E031906
:100AA400542DAF072A0803110318013E03195B2DC7
:100AB400B0072B0803110318013E0319622DB10777
:100AC4003908A800A901AA01AB012808B40729081C
:100AD40003110318013E0319702DB5072A080311E9
:100AE4000318013E0319772DB6072B0803110318C9
:100AF400013E03197E2DB7072208F00024080A16C8
:100B04008A11AF270A128A11710883120313B900DC
:100B14007008B8003808A800A901AA01AB01280888
:100B2400AE07290803110318013E03199A2DAF07D4
:100B34002A0803110318013E0319A12DB0072B083D
:100B440003110318013E0319A82DB1073908A800A1
:100B5400A901AA01AB012808B40729080311031845
:100B6400013E0319B62DB5072A0803110318013EE7
:100B74000319BD2DB6072B0803110318013E0319F1
:100B8400C42DB7070830A8000310AE0DAF0DB00D8B
:100B9400B10DA80BC62D2108F00024080A168A11ED
:100BA400AF270A128A11710883120313B90070085F
:100BB400B8003808A8003908A900AA01AB01280820
:100BC400AE07290803110318013E0319EA2DAF07E4
:100BD4002A0803110318013E0319F12DB0072B084D
:100BE40003110318013E0319F82DB1072008F00082
:100BF40025080A168A11AF270A128A11710883126E
:100C04000313B9007008B8003808A8003908A9000F
:100C1400AA01AB012808AE07290803110318013EF5
:100C24000319152EAF072A0803110318013E0319EF
:100C34001C2EB0072B0803110318013E0319232EA1
:100C4400B1070830A8000310AE0DAF0DB00DB10D03
:100C5400A80B252E2008F00024080A168A11AF27B5
:100C64000A128A11710883120313B9007008B800BC
:100C74003808A8003908A900AA01AB012808AE0762
:100C8400290803110318013E0319492EAF072A0846
:100C940003110318013E0319502EB0072B0803114A
:100CA4000318013E0319572EB1072108F000260846
:100CB4000A168A11AF270A128A11710883120313C4
:100CC400B9007008B8003808A8003908A900AA01BA
:100CD400AB012808B407290803110318013E0319BE
:100CE400742EB5072A0803110318013E03197B2E3D
:100CF400B6072B0803110318013E0319822EB70708
:100D04002208F00025080A168A11AF270A128A1150
:100D1400710883120313B9007008B8003808A800DA
:100D24003908A900AA01AB012808B407290803114E
:100D34000318013E03199F2EB5072A08031103184F
:100D4400013E0319A62EB6072B0803110318013E12
:100D54000319AD2EB7072208F00026080A168A11D7
:100D6400AF270A128A11710883120313B90070089D
:100D7400B8003808A8003908A900AA01AB01083056
:100D84000310A80DA90DAA0DAB0DFF3E031DC22E25
:100D94002808B407290803110318013E0319D32EA8
:100DA400B5072A0803110318013E0319DA2EB60702
:100DB4002B0803110318013E0319E12EB7072E086F
:100DC400A8002F08A9003008AA003108AB00183089
:100DD4000310AB0CAA0CA90CA80CFF3E031DEA2EB1
:100DE4002808B407290803110318013E0319FB2E30
:100DF400B5072A0803110318013E0319022FB60789
:100E04002B0803110318013E0319092FB7070830F3
:100E1400A8000310AE0DAF0DB00DB10DA80B0B2F34
:100E240033083207A800A901A90D2808823EB8009A
:100E340029080318013EFF3EB9003D2F0130A800E8
:100E44000310B40DB50DB60DB70DA80B222FB11FAD
:100E54002C2F2D2F2E2F34140130A8000310AE0D8B
:100E6400AF0DB00DB10DA80B302FFF30B80703182C
:100E7400B90AFF30B907B61F402F412F202FB20106
:100E8400B11F452F462F622FFF302E05A800FF30DB
:100E94002F05A900FF303005AA007F303105AB00D3
:100EA4002B082A04290428040319592F5A2F5D2FCB
:100EB4000130B200622F341C602F612F622F5A2F31
:100EC40032080319662F672F982F0130B4070030BA
:100ED40003180130B507003003180130B60700309D
:100EE40003180130B707371C782F792F982F34084F
:100EF400A8003508A9003608AA003708AB0001305D
:100F0400AC002B0DAB0CAA0CA90CA80CAC0B832FBA
:100F14002B08B7002A08B6002908B5002808B40031
:100F24000130B8070318B90A0030B9073908803A04
:100F3400FF0080307F02031DA12FFF303802031C05
:100F4400A42FA52FB02F7F3083120313B700803056
:100F5400B6000030B5000030B400E12F8312031353
:100F64003908803AFF0080307F02031DBB2F013017
:100F740038020318BE2FBF2FCB2F00308312031368
:100F8400B7000030B6000030B5000030B400AD0149
:100F9400E12F831203133808B300FF30B405FF3088
:100FA400B5057F30B6050030B705331CDA2FDB2FCB
:100FB400DC2FB6173308A8000310280CB7002D083F
:100FC400B7043708A3003608A2003508A100340886
:100FD400A000080083120313DE01DF01E001E10138
:100FE400E2018313A0308400C0300A128A15532012
:100FF4000A128A1183010A128A118F2808308A0082
:101004000408840A82070034543445344D3450347F
:101014003A34253464342C34483455344D343A3419
:10102400253464340D340A3400345334793473343D
:10103400743465346D34203449346E346934743412
:101044002E342E342E340034463441344E343A3463
:101054004F344E342034003450344D3450343A3408
:101064004F344E3420340034463441344E343A3410
:101074004F3446344634003450344D3450343A34CA
:101084004F34463446340034253420340034433459
:101094002034003448343A34003454343A3400347C
:1010A60064008001840A04060319003404065428E7
:1010B600F40083120313861006117408F20004303C
:1010C6000310F20CFF3E031D632872080A128A15EC
:1010D600EA200A128A1574080F390A128A15EA20BC
:1010E6000A128A157403031979287A28802802308F
:1010F6007406031D7F28802889280D30F300FB30F5
:10110600F200F20B8428F30B842889280800FC00DF
:101116000A30F0000030F1007C08FA00FB017A0882
:10112600F2007B08F3000A128A15AB220A128A150E
:101136007008303E0A168A1149270A128A150A30A3
:10114600F0000030F1007C08FA00FB017A08F2009A
:101156007B08F3000A128A15FA210A128A1570080A
:10116600303E0A168A1149270A128A150800831684
:1011760003138710831203138714071083160313B0
:101186008714831203130714C828C928000083167E
:1011960003138710831203138710D128D228000067
:1011A6008312031307100330F000F00BD8288312C4
:1011B60003130714DE28DF280000831603138714A1
:1011C600E428E52800008312031307100800F10045
:1011D6007118EE28F228831203130616F5288312D7
:1011E60003130612F118F828FC2883120313861637
:1011F600FF28831203138612711902290629831206
:10120600031306170929831203130613F1190C2970
:1012160010298312031386171329831203138613C7
:1012260006141030F000F00B162900008312031389
:1012360006105330F000F00B1E290800F000803035
:10124600F200F301831203130710700872050319E5
:101256002D292E293229831603138714382983163C
:101266000313871083120313871039293A290000C4
:101276008312031307143F29402900000310F20CC0
:101286000130F30708307302031C4A294B2925292C
:101296008312031307108316031387145229532945
:1012A600000083120313071458295929000000303F
:1012B6008312031387180130F10007107108080024
:1012C6000030F7000030F6007530F5003030F400DD
:1012D6008316031387148312031307107629083025
:1012E600F000F00B74290130F0000030F1000030FE
:1012F600F2000030F3007008F4027108031C710F4D
:1013060085298629F5027208031C720F8B298C2900
:10131600F6027308031C730F91299229F702740AC7
:10132600031DA029750A031DA029760A031DA029FD
:10133600770A03199F29A029A62983120313871860
:10134600A529A6297229080073080319AB29AC2917
:10135600B1297308031DB029B129B82971080A16E5
:101366008A11EC260A128A15F9297308083E8400A8
:1013760083130008F400840A0008F5007408750455
:101386000319C629C729E4297308083E8400000802
:10139600F400840A0008F500730A84000008F600C9
:1013A600840A0008F7007708803AF8007508803A42
:1013B6007802031DE029740876020318E329E4295C
:1013C600F929730A840083130008F4007308840063
:1013D60000087407F5007508840071088000730A18
:1013E600840001308007840A0318800A0800F5018A
:1013F600F31FFE29FF29062AF209F309F20A031947
:10140600F30A0130F500F11F092A0A2A0F2AF0090A
:10141600F109F00A0319F10A700871040319142A74
:10142600152A422A0130F400212A01300310F00D5A
:10143600F10DFF3E031D192A0130F407F11F242A7E
:10144600252A182A71087302031D2B2A70087202B6
:10145600031C2E2A2F2A352A7008F2027108031C53
:10146600F303F30201300310F10CF00CFF3E031DF1
:10147600362A0130F402031D412A422A252A75081C
:101486000319462A472A4C2AF209F309F20A0319D4
:10149600F30A7308F1007208F000080083120313C0
:1014A6000610861006110230F7004530F600A93006
:1014B600F500F50B5C2AF60B5C2AF70B5C2A632A0F
:1014C60003300A128A15EA200A128A152130F6001C
:1014D6007630F500F50B6D2AF60B6D2A0000033009
:1014E6000A128A15EA200A128A15F930F500F50B58
:1014F6007A2A7D2A03300A128A15EA200A128A15E8
:1015060002300A128A15EA200A128A1528300A12AF
:101516008A155B200A128A150C300A128A155B207E
:101526000A128A1506300A128A155B200A128A15D3
:1015360001300A128A155B200A128A152130F6003C
:101546007630F500F50BA52AF60BA52A0000080053
:10155600F501F11FAF2AB02AB72AF009F109F00AFE
:101566000319F10A0130F500F31FBA2ABB2AC22A71
:10157600F209F309F20A0319F30A0130F506F60136
:10158600F701700871040319C92ACA2AFF2A013013
:10159600F400D62A01300310F00DF10DFF3E031DB5
:1015A600CE2A0130F407F11FD92ADA2ACD2A0130D2
:1015B6000310F60DF70DFF3E031DDB2A71087302BB
:1015C600031DE72A70087202031CEA2AEB2AF22A94
:1015D6007008F2027108031CF303F302761401305B
:1015E6000310F10CF00CFF3E031DF32A0130F40248
:1015F600031DFE2AFF2ADA2A75080319032B042B7A
:10160600092BF609F709F60A0319F70A7708F10014
:101616007608F0000800F301F4018316031387141B
:10162600F50101300310F30DF40DFF3E031D152BDC
:101636008312031307141F2B202B0000831203139E
:10164600871C262B272B282B731407102A2B2B2BB2
:1016560000000130F50708307502031C332B342BCC
:10166600142B831603138710831203138710071492
:101676000330F200F20B3D2B83120313071083167F
:1016860003138714F50101300310F30DF40DFF3E2B
:10169600031D472B831203130714512B522B0000F3
:1016A60083120313871C582B592B5A2B73140710BC
:1016B6005C2B5D2B00000130F50708307502031C1A
:1016C600652B662B462B831603138714831203138D
:1016D60007140330F200F20B6E2B8312031307106C
:1016E6007408F1007308F000080000307005F80077
:1016F60000307105F90080307205FA007F307305FD
:10170600FB007B087A0479047804031D8B2B8C2B51
:10171600942B0030F3000030F2000030F10000306E
:10172600F00000307405F80000307505F9008030CF
:101736007605FA007F307705FB007B087A0479048A
:101746007804031DA72BA82BB02B0030F700003020
:10175600F6000030F5000030F400F31FB32BB42B75
:10176600D82B0030F8000030F9000030FA00803045
:10177600FB007008F8027108031C710FC32BC42B01
:10178600F9027208031C720FC92BCA2BFA027308DE
:10179600031C730FCF2BD02BFB027B08F3007A08B8
:1017A600F2007908F1007808F000F71FDB2BDC2B3C
:1017B600002C0030F8000030F9000030FA008030CC
:1017C600FB007408F8027508031C750FEB2BEC2B55
:1017D600F9027608031C760FF12BF22BFA02770832
:1017E600031C770FF72BF82BFB027B08F7007A0810
:1017F600F6007908F5007808F4008030F3068030AA
:10180600F70677087302031D122C76087202031D71
:10181600122C75087102031D122C7408700203182D
:10182600152C162C182C0310192C03140800F8007C
:10183600780803191F2C202C342CF31F232C242C5E
:10184600342C7009FA007109FB007209FC00730957
:10185600FD00FA0A0319FB0A0319FC0A0319FD0A1B
:101866003C2C7308FD007208FC007108FB00700830
:10187600FA007308720471047004031D432C442C8F
:101886004D2C0030F3000030F2000030F100003043
:10189600F000CD2C9630F9005B2C0130F9070130B1
:1018A6000310FD0CFC0CFB0CFA0CFF3E031D532C25
:1018B600FE307D05031D602C612C502C7B2C0130E5
:1018C600F9070130FA07003003180130FB07003032
:1018D60003180130FC07003003180130FD07013002
:1018E6000310FD0CFC0CFB0CFA0CFF3E031D732CC5
:1018F600FF307D05031D802C812C622C8D2C013040
:10190600F9020130F4000310FA0DFB0DFC0DFD0D7C
:10191600F40B862CFC1B902C912C972C0230790210
:101926000318962C972C822C79189A2C9B2CA32C76
:10193600FF30FA05FF30FB057F30FC05FF30FD0563
:101946000310F90C7908F400F501F601F7011830D7
:101956000310F40DF50DF60DF70DFF3E031DAB2C30
:101966007408FA047508FB047608FC047708FD047D
:1019760078080319BF2CC02CC52CF31FC32CC42C0C
:10198600C52CFD177D08F3007C08F2007B08F100EA
:101996007A08F00008007B088400000884000A1218
:1019A6008A1500200A128A15253A031DDB2CDC2C29
:1019B600962D7B0884000130800783120313DE0115
:1019C600DF010030E200FF30E000FF30E1007B087D
:1019D60084000008A300230884000A128A15002048
:1019E6000A128A15643A0319F92CFA2C062D2308D3
:1019F60084000A128A1500200A128A15693A031D04
:101A0600052D062D912D7C08840083130008A00067
:101A160002308007200884000008A400840A000819
:101A2600A5007B0884002308013E80002030A80022
:101A3600A51B1E2D202D0130212D0030A2000130C6
:101A4600A8022808A03E84000A30F0000030F10009
:101A56002508F3002408F2000A128A15FA210A1250
:101A66008A157108F7007008F6000A128A110A2012
:101A76000A128A157608303E831380000A30F00079
:101A86000030F100831203132508F3002408F20046
:101A96000A128A15AB220A128A15710883120313D9
:101AA600A5007008A4002408250403195B2D5C2DED
:101AB600612D2808031D602D612D222D280803198C
:101AC600652D662D8A2D220803196A2D6B2D8A2D08
:101AD6000130A8022808A03E84002D308313800020
:101AE6008A2D2808A03E840083130008A000A101C7
:101AF6002008F1002108F2007A08F3000A128A157C
:101B0600A7210A128A15013083120313A807203071
:101B16002806031D8F2D902D742DAF2D7B08840074
:101B260001308007AF2D7B088400000884000A126C
:101B36008A1500200A128A1583120313A000A10138
:101B46002008F1002108F2007A08F3000A128A152B
:101B5600A7210A128A15912D0800831203133D0846
:101B6600CA008030CA053D08C2004207CC00BC1F2F
:101B7600BD2DBE2DBF2D4C144C080319C32DC42DED
:101B8600D42D4C0A031DC82DC92DD12D0030BD0002
:101B96000030BC000030BB000030BA00BC17BD01ED
:101BA600DC2D0030BD000030BC000030BB00003032
:101BB600BA004108CB008030CB054B084A06031912
:101BC600E52DE62DE72D4A174108C2004207CB0056
:101BD600C01FEE2DEF2DF02D4B144B080319F42DDD
:101BE600F52D052E4B0A031DF92DFA2D022E003078
:101BF600C1000030C0000030BF000030BE00C0177A
:101C0600C1010D2E0030C1000030C0000030BF0001
:101C16000030BE004C084B020318122E132E372E2E
:101C26004A1F162E172E192E8030CA064C08CD00D4
:101C36004B08CC004D08CB003A08CD003E08BA0050
:101C46004D08BE003B08CD003F08BB004D08BF0055
:101C56003C08CD004008BC004D08C0003D08CD0042
:101C66004108BD004D08C100CD014B08C200C301AB
:101C76004308C5004C084202C400031CC5034508BE
:101C8600803AFF0080307F02031D4B2E1A3044023B
:101C9600031C4E2E4F2E842E831203133D083C0444
:101CA6003B043A04031D582E5A2E01305B2E003099
:101CB600CD000030BD000030BC000030BB0000305D
:101CC600BA004B08CC008C2E4D1C6A2E6B2E722E41
:101CD6004D08C2000310420C0138CD00742E0310CB
:101CE600CD0C3A1C772E782E792ECD170130C200F6
:101CF6003D0DBD0CBC0CBB0CBA0CC20B7B2E0130CF
:101D0600CC07831203134B084C02031C8B2E8C2E1C
:101D1600672E4A1B8F2E902ED72E4C08031D942E0D
:101D2600952E9E2E0030BD000030BC000030BB005A
:101D36000030BA00FF2F3E08BA073F080311031808
:101D4600013E0319A72EBB07400803110318013EE5
:101D56000319AE2EBC07410803110318013E0319EF
:101D6600B52EBD073D1CB82EB92E8B2F4D1CBC2E93
:101D7600BD2EC42E4D08C2000310420C0138CD0002
:101D8600C62E0310CD0C3A1CC92ECA2ECB2ECD174B
:101D96000130C2003D0DBD0CBC0CBB0CBA0CC20B15
:101DA600CD2E0130CC078B2F3D08803AFF0041082D
:101DB600803A7F02031DE92E40083C02031DE92EEE
:101DC6003F083B02031DE92E3E083A020318EC2E9B
:101DD600ED2E442FFF30C200FF30C300FF30C40099
:101DE600FF30C5003E08C6003F08C7004008C800CF
:101DF6004108C9003A08C6023B08031C3B0F042FE2
:101E0600052FC7023C08031C3C0F0A2F0B2FC802E4
:101E16003D08031C3D0F102F112FC9024608C207AB
:101E260047080318470F182F192FC3074808031828
:101E3600480F1E2F1F2FC40749080318490AC50754
:101E46004508BD004408BC004308BB004208BA0070
:101E56008030CA064D03FF3ACD004D08031D342FCE
:101E6600352F522F0130BA07003003180130BB0757
:101E7600003003180130BC07003003180130BD07DD
:101E8600522F3E08BA023F08031C3F0FBB02400810
:101E9600031C400FBC024108031C410FBD023D0854
:101EA6003C043B043A04031D592F5A2F872F4D0833
:101EB600031D5E2F5F2F872F0030BD000030BC0052
:101EC6000030BB000030BA00FF2F0130C200031003
:101ED600BA0DBB0DBC0DBD0DC20B6A2FCD1F742FE5
:101EE600752F762F3A144D1C792F7A2F7E2F0314D7
:101EF6004D0DCD00802F0310CD0D4C080319842FF6
:101F0600852F872F0130CC02BC1F8A2F8B2F682F7D
:101F1600CB01CD1F8F2F902F9E2F4D087F39031990
:101F2600952F962F992F0130CB009E2F3A1C9C2F70
:101F36009D2F9E2F962F4B080319A22FA32FD52F27
:101F46000130BA07003003180130BB070030031810
:101F56000130BC07003003180130BD073D1CB42F0B
:101F6600B52FD52F3A08C2003B08C3003C08C40071
:101F76003D08C5000130C600450DC50CC40CC30C98
:101F8600C20CC60BBF2F4508BD004408BC00430861
:101F9600BB004208BA004C0A0319D22FD32FD52F03
:101FA6000130CC074C0A0319D92FDA2FDF2F4C0842
:101FB600031DDE2FDF2FED2F0030BD000030BC00EB
:101FC6000030BB000030BA004C08031DEB2FEC2F8D
:101FD600ED2FCA014C1CF02FF12FF32FBC17F52F54
:101FE6007F30BC054C08C2000310420CBD00CA1F5E
:0A1FF600FD2FFE2FFF2FBD1708007E
:102DD800F00083160313981CF22EF32EED2E7008C4
:102DE8008312031399000800831603130713871728
:102DF8008130990024309800903083120313980092
:102E080008002D3083120313B100A9012C08AA0071
:102E18003130AB000A168A1168270A168A11080091
:102E2800F60076080319192F1A2F1F2FC030F70044
:102E38000030F800232F8030F7000030F8007708C2
:102E4800F900750879070A128A155B200A168A1193
:102E580008003C2F7A0884000A128A1500200A16F6
:102E68008A110A168A1149270A168A110130FA07A7
:102E78007A0884000A128A1500200A168A11003A74
:102E8800031D472F482F2E2F0800F9008312031324
:102E9800861406117908F80004300310F80CFF3E78
:102EA800031D512F78080A128A15EA200A168A117A
:102EB80079080F390A128A15EA200A168A1153303E
:102EC800F800F80B652F0800831203132A08FD0089
:102ED8007A2F831203132908FA007D30FB002B0890
:102EE800FC000A128A15CE240A168A117D0884006D
:102EF8000A128A1500200A168A11003A031D852F26
:102F0800862F6D2F83120313A901AA0108008030B0
:102F180083120313D1065508BD005408BC0053089A
:102F2800BB005208BA005108C1005008C0004F0841
:102F3800BF004E08BE000A128A15B0250A168A116B
:102F4800831203133D08D1003C08D0003B08CF0092
:102F58003A08CE000800F800F401F5017008F20004
:102F6800F3017208F6007308F700781CBC2FBD2F18
:102F7800C32F7608F4070318F50A7708F507013018
:102F88000310F60DF70DFF3E031DC42F0310F80CB8
:102F98007808031DD02FD12FB92F7508F1007408B8
:102FA800F00008008316031307108714F301831237
:102FB800031307140330F100F10BE02F83120313FE
:102FC80007100330F100F10BE72F0130F307093048
:102FD8007302031CF02FF12FDB2F0A128A15BA2077
:102FE8000A168A118230F200DD30F100F10BFA2F57
:082FF800F20BFA2FFF2F080075
:02400E00723FFF
:00000001FF
